:1000000005308A001E2D0000FF00030E8301A100B1
:100010000A08A0008A010408A2007708A300780853
:10002000A4007908A5007A08A60003170D08031399
:10003000A70003170F080313A80003170C080313E6
:10004000A90003170E080313AA00831383128C3030
:100050008400801E2D288C1A4E2822088400230834
:10006000F7002408F8002508F9002608FA002708F8
:1000700003178D000313280803178F0003132908A3
:1000800003178C0003132A0803178E00031320089C
:100090008A00210E8300FF0E7F0E09008A110A12CA
:1000A00051288C1E5C2848302B07840083138C1E3B
:1000B00057281A088000AB0A8C128A110A122D28C0
:1000C0008C22532845294127C4270A2A4129CA22BC
:1000D000D42000000C26CF20C424CE230A28CC2212
:1000E000C1294510D720492A00018C2252294F29C5
:1000F00020183205D322522B452920274F10C6271E
:10010000552744006B308400831300080319952899
:100110000630F800F701F70B8B28F80B8A287B30A4
:10012000F700F70B9128800B8828080072189A288E
:1001300006129B280616F2189F288612A0288616FB
:100140007219A4280613A5280617F219A9288613E0
:10015000AA288617000006150330F700F70BAE2813
:1001600006110800F3010030061A0130F3040030D4
:10017000861A0130F7000310F70D7708F3040030FA
:10018000061B0130F700F70DF70DFC30F705770877
:10019000F3040030861B0130F700F70DF70DF70D63
:1001A000F830F7057708F3047308F80008008316A1
:1001B0000611061086108312061083160616861680
:1001C0000617861783128614000006150000B22059
:1001D0007808F200061100000615EE28EF2800004E
:1001E000B2207808F1000611831606128612061353
:1001F0008613720EF700F030F70577087104F800E7
:100200007808F100F11BDE288312EF08031D0A298C
:1002100006100B2906140000861000000611700E4F
:10022000F1000F30F1057108F200962070080F39C7
:10023000F100F200962008002830DF000C30E000CA
:100240000130E1000630E200061106108610831628
:1002500006128612061386130611061086100F303A
:100260008312EB0082200130DE005E08033C031C99
:1002700041290330F20096200530EB008220DE0A8F
:1002800035290230F20096200530EB008220DE0195
:100290005E08033C031C58295F305E07840083130B
:1002A0000008E300EF016308F000D720DE0A4829C8
:1002B0008A110A12742D6C0B5E2961294030ED0001
:1002C0006229ED0101306B02ED076D088038EE0008
:1002D000EF016E08F000D72008006A08073A0319FA
:1002E0007B290B3A03198029063A03198829023A17
:1002F00003198E2993290130EB00EC005B2198292A
:10030000EF010130F000D7200230EB008220982965
:100310000130EB000230EC005B219829EF01103036
:10032000F000D72098290130EF006A08F000D720AC
:1003300008000B08DE008B13831603178C170C14B0
:100340000000000083120313DE1B8B1703170C0839
:100350007F390319ED290313DE0003170D0803137A
:10036000DF0003170F080313E0005E08EA006D21A9
:100370005F0803178D000313600803178F00031332
:100380000B08E1008B13831603178C170C14000065
:10039000000083120313E11B8B1703170C0D0E0DC6
:1003A0007F390319ED290313DE0003170D0803132A
:1003B000DF0003170F080313E0005E08EA006D2159
:1003C0005F0803178D000313600803178F008D0A61
:1003D00003198F0A031399290317031308008711C0
:1003E000871003108316200D7E39A3000830A20069
:1003F000A20803190F2A23088039803C0319042A14
:1004000083128712062A8316831287168715031014
:100410008316A30D831287118316A203F8290830CF
:10042000A200A2080319282A21088039803C031958
:100430001D2A831287121F2A831683128716871597
:1004400003108316A10D831287118316A203112AAC
:1004500083128714871508008316A201831287115F
:10046000871003107E0D7E3980388316A100083076
:10047000A000A0080319502A21088039803C0319E4
:10048000452A83128712472A8316831287168715F7
:1004900003108316A10D831287118316A003392A36
:1004A0000830A000A0080319652A831287150310DD
:1004B0008316A20D00308312071A01308316A2049E
:1004C000831287118316A003522A8312871487157B
:1004D00083162208F80083120800FD017B08FE0045
:1004E0002C227808FD007C08FF3A7D05FE007B0881
:1004F0008316A0007E08A1008312EF210800FD01F1
:100500007B08FE002C227808FD007D087C04FE009C
:100510007B088316A0007E08A1008312EF2108004B
:10052000871407150715942A952A00000711982AA1
:10053000992A000007159C2A9D2A00000130831685
:10054000A0000F30A1008312EF21A62AA72A0000E5
:100550002A308316A0008D30A1008312EF212B30AA
:100560008316A0003E30A1008312EF212D308316A8
:10057000A0001E30A1008312EF212C308316A000B2
:10058000A1018312EF2115308316A0004030A10095
:100590008312EF2111308316A0003D30A100831299
:1005A000EF211430FB000330FC006D221430FE00FC
:1005B0002C227808DE001430FB000330FC007F2280
:1005C0008A110A128D2D0230EF00F001F101670847
:1005D0000E3A0319EF2A023A0319F42AF92A1230C3
:1005E000F0001030F100F92A7730F0003030F100DF
:1005F000F92A70088038FB0002308316A0007B08BF
:10060000A1008312EF210430FB008030FC006D223A
:100610000A30FB008030FC007F2201308316A000EE
:10062000A1018312EF21F4016A0874020318292B37
:100630007408680784008313691883170008FB0097
:1006400009308316A0007B08A1008312EF21F40A71
:10065000142B01308316A000831267088316A100B3
:100660008312EF2167080C3C031D3B2B0D30FB0070
:100670008030FC007F22FF30F4000430FE002C228A
:100680007808F300F403F40803194C2B73184C2B6F
:100690007308710503193D2B0D30FB008030FC0001
:1006A0006D22F4080319C42B0630FE002C227808B2
:1006B0001B39031DC22BEF017308700501390319A3
:1006C000632B0130EF0067080C3C031DC12B0A307F
:1006D000FE002C227808F3000C30FE002C22780853
:1006E0000739F200F2080319862B6D088400831382
:1006F0006E18831701307302F700F70DF70DF70D31
:10070000F830F705770872078000932B6D08840096
:1007100083136E188317730DF700F70DF70DF8307C
:10072000F70577088000F308031D982B0130F300CC
:100730007308103C03189E2B1030F300F40173086B
:1007400074020318BA2B74086B07F8006C08FA00DF
:100750000318FA0A7808FB007A08FC000930FE004A
:100760002C227B08840083137C1883177808800070
:10077000F40A9F2B74086B07840083136C1883178B
:100780008001C42B0230EF006F08F800080026300B
:10079000E0005F08E2005E08E1000D308316A00073
:1007A0000730A1008312EF216108840083136218CF
:1007B0008317600880000C30E7006208E9006108D8
:1007C000E8000130EA006208EC006108EB00EE018D
:1007D0006430ED00E3227808E300E308031DF42B06
:1007E0006408103C0319F62B0230E3006308F8009C
:1007F000F808031DFF2B0130F800012C012C0030FC
:10080000F8008A110A12A22D5F08E2005E08E100DA
:10081000E5010D308316A000A1018312EF216108CC
:1008200084008313621883179330800001306107BE
:100830008400831362188317203080000830FB0087
:10084000FC006D220C30E7006208E9006108E80056
:100850000230EA006208EC006108EB00EE0166304D
:10086000ED00E3227808E300E308031D522CE401C5
:100870006408033C031C462C64086107840083134E
:10088000621883170008E506E40A382C0430610773
:100890008400831362188317000865020319522C21
:1008A0000230E3006308F8007808E00005305E07D6
:1008B000840083135F1883178001E008031D642CF4
:1008C0000130F800662C662C0030F8008A110A12FC
:1008D000A92D83186E2C723084008313F701F80160
:1008E000F901FA01F201F301F401F5017108700454
:1008F0006F046E040319AC2C2030F6000310EA0DCF
:10090000EB0DEC0DED0DF20DF30DF40DF50D710881
:100910007502031D952C70087402031D952C6F0839
:100920007302031D952C6E087202031CA62C6E0820
:10093000F2026F08031C6F0FF3027008031C700FA4
:10094000F4027108031C710FF5020314F70DF80D82
:10095000F90DFA0DF60B7E2C72088000840A7308DC
:100960008000840A74088000840A750880000800EA
:100970000408E2003B30E9009A30E800CA30E700A2
:10098000E6010A30E40083145E30840083136108BA
:10099000ED006008EC005F08EB005E08EA00690803
:1009A000F1006808F0006708EF006608EE006924AF
:1009B0007808F708031DEF2C6408013A0319EF2C9F
:1009C00062080319F02C0F3964020319E92C03188B
:1009D000F52CE21BF52C621BF02C2030F12CE201EF
:1009E0003030F7077708EA006D2183106908ED00C1
:1009F0006808EC006708EB006608EA00F101F00106
:100A0000EF010A30EE0069247A08E9007908E8006D
:100A10007808E7007708E600E40BC32C08000330F1
:100A2000DF02031C1D2D5F308400831300080319AF
:100A30001D2D1B2D1B2D800B1A2D080003081F399F
:100A40008300403083169900A630980090308312BE
:100A50009800AB01AC01D701D601D501D401DB016F
:100A6000DA01D901D801DD01DC0183161F149F14BE
:100A70001F159F1107309C0083138312AD01AE0137
:100A8000AF01B001B101B201B301B401B501B601CA
:100A9000B701B801B901BA01BB01BC01BD01BE017A
:100AA000BF01C001C101C201C301C401C501C6012A
:100AB000C701C801C901CA01CB01CC01CD01CE01DA
:100AC000CF01D001D101D20100308316850086000C
:100AD000903087008312850186018701C0308B0426
:100AE00083168C1683121C29603003178D0000308A
:100AF0008F0003139921BE010130BF00C0010530F2
:100B0000C1002D08C2002E08C3002F08C400300801
:100B1000C500C6010D30C700902A0512AB012B0895
:100B2000FE3C031C9D2D05150130EB0082200511B4
:100B30000330EB008220AB0A8F2D0516DF01533006
:100B4000DE00C72BF8080319E72EDF012D30DE0089
:100B5000042CF8080319E72E2D08C2002E08C30044
:100B60002F08C4003008C500AB012B080A3C031C49
:100B7000C02D48302B07840083138001AB0AB52DAC
:100B80006A3003178D0000308F00031399216930FC
:100B9000BD00AB012B080A3C031CDD2D3D302B07AB
:100BA000840083130008DE005E080C1ED52D99001A
:100BB0000130EB008220AB0ACA2DAB01AC01D20898
:100BC000031DF92D0A30EB008220AC0A2C0FF82D02
:100BD000753003178D0000308F00031399210C30FE
:100BE000DE00FA30EB008220DE0BF12D8A010028B6
:100BF000DF2D48083D02031DE72E49083E02031D74
:100C0000E72E4A083F02031DE72E4B084002031D52
:100C1000E72E4C084102031DE72EF801F901FA0105
:100C20004D08E100DE01DF01E0014E08F700F801A8
:100C3000F901FA017808FA00F701F8017708DE07F0
:100C400078080318780FDF074E0803184E0FE007E7
:100C50007A0803187A0FE107FA010030DE074F081F
:100C600003184F0FDF07003003180130E007003092
:100C700003180130E10750085E07D4005F08D50073
:100C8000003003180130D5076008D6000030031883
:100C90000130D6076108D700003003180130D707AC
:100CA000F801F901FA014208E100DE01DF01E0018B
:100CB0004308F700F801F901FA017808FA00F70192
:100CC000F8017708DE0778080318780FDF07430874
:100CD0000318430FE0077A0803187A0FE107FA01B7
:100CE0000030DE0744080318440FDF070030031804
:100CF0000130E007003003180130E10745085E07C6
:100D0000D8005F08D900003003180130D907600807
:100D1000DA00003003180130DA076108DB00003028
:100D200003180130DB070C30EA006D2141308400EC
:100D30005B08E1005A08E0005908DF005808DE00AF
:100D4000B8240A30EA006D212430EA006D214130D8
:100D500084005708E1005608E0005508DF005408F9
:100D6000DE00B8240512AB012B08FE3C031CD02E7C
:100D700005150130EB0082200230DE00F930DF0083
:100D80000F25DE0BBE2E05110230EB008220023053
:100D9000DE00F930DF000F25DE0BC92EAB0AB42EC2
:100DA0001430DE00FA30EB008220DE0BD22EAB01D5
:100DB0002B08FE3C031CE62E05150130EB008220BB
:100DC00005110330EB008220AB0AD82E05169E2DAC
:020DD0006300BE
:02400E00022F7F
:00000001FF
;PIC16F876A
;CRC=C922  CREATED="15-jul-15 19:10"
